{
  "contractName": "Owner",
  "abi": [
    {
      "constant": true,
      "inputs": [],
      "name": "dono",
      "outputs": [
        {
          "name": "",
          "type": "address"
        }
      ],
      "payable": false,
      "stateMutability": "view",
      "type": "function"
    }
  ],
  "bytecode": "0x6060604052341561000f57600080fd5b60e78061001d6000396000f300606060405260043610603f576000357c0100000000000000000000000000000000000000000000000000000000900463ffffffff16806370514bea146044575b600080fd5b3415604e57600080fd5b60546096565b604051808273ffffffffffffffffffffffffffffffffffffffff1673ffffffffffffffffffffffffffffffffffffffff16815260200191505060405180910390f35b6000809054906101000a900473ffffffffffffffffffffffffffffffffffffffff16815600a165627a7a723058206d4771a54748b30f0a4fabf047822fb6e3dfcc436d761faa49d60104b61fed160029",
  "source": "pragma solidity ^0.4.16;\n\ncontract Owner {\n    //atributos\n    address public dono;\n    modifier apenasDono() {\n        require (msg.sender == dono);\n        _;\n    }\n}",
  "sourcePath": "/Users/hgleite/Documents/henrique/GoBlockchain/Contratos/contracts/Owner.sol",
  "compiler": {
    "name": "solc",
    "version": "0.4.18+commit.9cf6e910.Emscripten.clang"
  },
  "schemaVersion": "1.0.1",
  "updatedAt": "2017-12-01T20:45:13.645Z"
}