{
  "contractName": "Pessoa",
  "abi": [
    {
      "constant": true,
      "inputs": [],
      "name": "nome",
      "outputs": [
        {
          "name": "",
          "type": "string"
        }
      ],
      "payable": false,
      "stateMutability": "view",
      "type": "function"
    },
    {
      "constant": true,
      "inputs": [],
      "name": "dono",
      "outputs": [
        {
          "name": "",
          "type": "address"
        }
      ],
      "payable": false,
      "stateMutability": "view",
      "type": "function"
    },
    {
      "constant": true,
      "inputs": [],
      "name": "email",
      "outputs": [
        {
          "name": "",
          "type": "string"
        }
      ],
      "payable": false,
      "stateMutability": "view",
      "type": "function"
    },
    {
      "constant": false,
      "inputs": [
        {
          "name": "_newMail",
          "type": "string"
        }
      ],
      "name": "mudarEmail",
      "outputs": [],
      "payable": false,
      "stateMutability": "nonpayable",
      "type": "function"
    },
    {
      "constant": true,
      "inputs": [],
      "name": "getCpf",
      "outputs": [
        {
          "name": "",
          "type": "int256"
        }
      ],
      "payable": false,
      "stateMutability": "view",
      "type": "function"
    },
    {
      "inputs": [
        {
          "name": "_nome",
          "type": "string"
        },
        {
          "name": "_email",
          "type": "string"
        },
        {
          "name": "_cpf",
          "type": "int256"
        },
        {
          "name": "_dataNascimento",
          "type": "string"
        },
        {
          "name": "_enderecoRegistroPessoas",
          "type": "address"
        }
      ],
      "payable": false,
      "stateMutability": "nonpayable",
      "type": "constructor"
    },
    {
      "anonymous": false,
      "inputs": [
        {
          "indexed": false,
          "name": "_pessoa",
          "type": "address"
        },
        {
          "indexed": false,
          "name": "emailAlterado",
          "type": "string"
        }
      ],
      "name": "LogPersonEmailAlterado",
      "type": "event"
    }
  ],
  "bytecode": "0x6060604052341561000f57600080fd5b6040516107753803806107758339810160405280805182019190602001805182019190602001805190602001909190805182019190602001805190602001909190505084600190805190602001906100689291906101a7565b50836002908051906020019061007f9291906101a7565b5082600481905550816005908051906020019061009d9291906101a7565b50336000806101000a81548173ffffffffffffffffffffffffffffffffffffffff021916908373ffffffffffffffffffffffffffffffffffffffff1602179055508073ffffffffffffffffffffffffffffffffffffffff16639f409682306000604051602001526040518263ffffffff167c0100000000000000000000000000000000000000000000000000000000028152600401808273ffffffffffffffffffffffffffffffffffffffff1673ffffffffffffffffffffffffffffffffffffffff168152602001915050602060405180830381600087803b151561018157600080fd5b6102c65a03f1151561019257600080fd5b5050506040518051905050505050505061024c565b828054600181600116156101000203166002900490600052602060002090601f016020900481019282601f106101e857805160ff1916838001178555610216565b82800160010185558215610216579182015b828111156102155782518255916020019190600101906101fa565b5b5090506102239190610227565b5090565b61024991905b8082111561024557600081600090555060010161022d565b5090565b90565b61051a8061025b6000396000f30060606040526004361061006d576000357c0100000000000000000000000000000000000000000000000000000000900463ffffffff1680632deb124b1461007257806370514bea14610100578063820e93f514610155578063f83bef19146101e3578063f918f1f914610240575b600080fd5b341561007d57600080fd5b610085610269565b6040518080602001828103825283818151815260200191508051906020019080838360005b838110156100c55780820151818401526020810190506100aa565b50505050905090810190601f1680156100f25780820380516001836020036101000a031916815260200191505b509250505060405180910390f35b341561010b57600080fd5b610113610307565b604051808273ffffffffffffffffffffffffffffffffffffffff1673ffffffffffffffffffffffffffffffffffffffff16815260200191505060405180910390f35b341561016057600080fd5b61016861032c565b6040518080602001828103825283818151815260200191508051906020019080838360005b838110156101a857808201518184015260208101905061018d565b50505050905090810190601f1680156101d55780820380516001836020036101000a031916815260200191505b509250505060405180910390f35b34156101ee57600080fd5b61023e600480803590602001908201803590602001908080601f016020809104026020016040519081016040528093929190818152602001838380828437820191505050505050919050506103ca565b005b341561024b57600080fd5b61025361043f565b6040518082815260200191505060405180910390f35b60018054600181600116156101000203166002900480601f0160208091040260200160405190810160405280929190818152602001828054600181600116156101000203166002900480156102ff5780601f106102d4576101008083540402835291602001916102ff565b820191906000526020600020905b8154815290600101906020018083116102e257829003601f168201915b505050505081565b6000809054906101000a900473ffffffffffffffffffffffffffffffffffffffff1681565b60028054600181600116156101000203166002900480601f0160208091040260200160405190810160405280929190818152602001828054600181600116156101000203166002900480156103c25780601f10610397576101008083540402835291602001916103c2565b820191906000526020600020905b8154815290600101906020018083116103a557829003601f168201915b505050505081565b6000809054906101000a900473ffffffffffffffffffffffffffffffffffffffff1673ffffffffffffffffffffffffffffffffffffffff163373ffffffffffffffffffffffffffffffffffffffff1614151561042557600080fd5b806002908051906020019061043b929190610449565b5050565b6000600454905090565b828054600181600116156101000203166002900490600052602060002090601f016020900481019282601f1061048a57805160ff19168380011785556104b8565b828001600101855582156104b8579182015b828111156104b757825182559160200191906001019061049c565b5b5090506104c591906104c9565b5090565b6104eb91905b808211156104e75760008160009055506001016104cf565b5090565b905600a165627a7a72305820d79183884163e963f6197e9ce1e8acac74193bccaf5f5b4ab2649848eefad90e0029",
  "source": "\npragma solidity ^0.4.16;\n\nimport \"../registros/RegistrosPessoas.sol\";\nimport \"../Owner.sol\";\n\ncontract Pessoa is Owner {\n    string public nome;\n    string public email;\n    bool email_valido;\n    int cpf;\n    string dataNascimento;\n    \n    event LogPersonEmailAlterado(address _pessoa, string emailAlterado); \n\n    function Pessoa(string _nome, string _email, int _cpf, string _dataNascimento, address _enderecoRegistroPessoas) public {\n        nome = _nome;\n        email = _email;\n        cpf = _cpf;\n        dataNascimento = _dataNascimento;\n        dono = msg.sender;\n        RegistrosPessoas(_enderecoRegistroPessoas).salvaPessoas(this);\n    }\n    \n    function mudarEmail(string _newMail) public apenasDono {\n       email = _newMail;\n    }\n    function getCpf() public view returns(int) {\n       return cpf;\n    }    \n}",
  "sourcePath": "/Users/hgleite/Documents/henrique/GoBlockchain/GBC_contratos/Contratos/contracts/pessoa/Pessoa.sol",
  "compiler": {
    "name": "solc",
    "version": "0.4.18+commit.9cf6e910.Emscripten.clang"
  },
  "schemaVersion": "1.0.1",
  "updatedAt": "2017-12-02T20:28:18.401Z"
}