{
  "contractName": "Pessoa",
  "abi": [
    {
      "constant": true,
      "inputs": [],
      "name": "nome",
      "outputs": [
        {
          "name": "",
          "type": "string"
        }
      ],
      "payable": false,
      "stateMutability": "view",
      "type": "function"
    },
    {
      "constant": true,
      "inputs": [],
      "name": "dono",
      "outputs": [
        {
          "name": "",
          "type": "address"
        }
      ],
      "payable": false,
      "stateMutability": "view",
      "type": "function"
    },
    {
      "constant": true,
      "inputs": [],
      "name": "email",
      "outputs": [
        {
          "name": "",
          "type": "string"
        }
      ],
      "payable": false,
      "stateMutability": "view",
      "type": "function"
    },
    {
      "constant": false,
      "inputs": [
        {
          "name": "_newMail",
          "type": "string"
        }
      ],
      "name": "mudarEmail",
      "outputs": [],
      "payable": false,
      "stateMutability": "nonpayable",
      "type": "function"
    },
    {
      "inputs": [
        {
          "name": "_nome",
          "type": "string"
        },
        {
          "name": "_email",
          "type": "string"
        },
        {
          "name": "_cpf",
          "type": "int256"
        },
        {
          "name": "_dataNascimento",
          "type": "string"
        },
        {
          "name": "_enderecoRegistroPessoas",
          "type": "address"
        }
      ],
      "payable": false,
      "stateMutability": "nonpayable",
      "type": "constructor"
    },
    {
      "anonymous": false,
      "inputs": [
        {
          "indexed": false,
          "name": "_pessoa",
          "type": "address"
        },
        {
          "indexed": false,
          "name": "emailAlterado",
          "type": "string"
        }
      ],
      "name": "LogPersonEmailAlterado",
      "type": "event"
    }
  ],
  "bytecode": "0x6060604052341561000f57600080fd5b6040516107373803806107378339810160405280805182019190602001805182019190602001805190602001909190805182019190602001805190602001909190505084600190805190602001906100689291906101a7565b50836002908051906020019061007f9291906101a7565b5082600481905550816005908051906020019061009d9291906101a7565b50336000806101000a81548173ffffffffffffffffffffffffffffffffffffffff021916908373ffffffffffffffffffffffffffffffffffffffff1602179055508073ffffffffffffffffffffffffffffffffffffffff16639f409682306000604051602001526040518263ffffffff167c0100000000000000000000000000000000000000000000000000000000028152600401808273ffffffffffffffffffffffffffffffffffffffff1673ffffffffffffffffffffffffffffffffffffffff168152602001915050602060405180830381600087803b151561018157600080fd5b6102c65a03f1151561019257600080fd5b5050506040518051905050505050505061024c565b828054600181600116156101000203166002900490600052602060002090601f016020900481019282601f106101e857805160ff1916838001178555610216565b82800160010185558215610216579182015b828111156102155782518255916020019190600101906101fa565b5b5090506102239190610227565b5090565b61024991905b8082111561024557600081600090555060010161022d565b5090565b90565b6104dc8061025b6000396000f300606060405260043610610062576000357c0100000000000000000000000000000000000000000000000000000000900463ffffffff1680632deb124b1461006757806370514bea146100f5578063820e93f51461014a578063f83bef19146101d8575b600080fd5b341561007257600080fd5b61007a610235565b6040518080602001828103825283818151815260200191508051906020019080838360005b838110156100ba57808201518184015260208101905061009f565b50505050905090810190601f1680156100e75780820380516001836020036101000a031916815260200191505b509250505060405180910390f35b341561010057600080fd5b6101086102d3565b604051808273ffffffffffffffffffffffffffffffffffffffff1673ffffffffffffffffffffffffffffffffffffffff16815260200191505060405180910390f35b341561015557600080fd5b61015d6102f8565b6040518080602001828103825283818151815260200191508051906020019080838360005b8381101561019d578082015181840152602081019050610182565b50505050905090810190601f1680156101ca5780820380516001836020036101000a031916815260200191505b509250505060405180910390f35b34156101e357600080fd5b610233600480803590602001908201803590602001908080601f01602080910402602001604051908101604052809392919081815260200183838082843782019150505050505091905050610396565b005b60018054600181600116156101000203166002900480601f0160208091040260200160405190810160405280929190818152602001828054600181600116156101000203166002900480156102cb5780601f106102a0576101008083540402835291602001916102cb565b820191906000526020600020905b8154815290600101906020018083116102ae57829003601f168201915b505050505081565b6000809054906101000a900473ffffffffffffffffffffffffffffffffffffffff1681565b60028054600181600116156101000203166002900480601f01602080910402602001604051908101604052809291908181526020018280546001816001161561010002031660029004801561038e5780601f106103635761010080835404028352916020019161038e565b820191906000526020600020905b81548152906001019060200180831161037157829003601f168201915b505050505081565b6000809054906101000a900473ffffffffffffffffffffffffffffffffffffffff1673ffffffffffffffffffffffffffffffffffffffff163373ffffffffffffffffffffffffffffffffffffffff161415156103f157600080fd5b806002908051906020019061040792919061040b565b5050565b828054600181600116156101000203166002900490600052602060002090601f016020900481019282601f1061044c57805160ff191683800117855561047a565b8280016001018555821561047a579182015b8281111561047957825182559160200191906001019061045e565b5b509050610487919061048b565b5090565b6104ad91905b808211156104a9576000816000905550600101610491565b5090565b905600a165627a7a723058204b0ead5f17cf7eecfdc9ac34d314e91d9d316b6043e521b78c5d94524a1dfd8b0029",
  "source": "\npragma solidity ^0.4.16;\n\nimport \"../registros/RegistrosPessoas.sol\";\nimport \"../Owner.sol\";\n\ncontract Pessoa is Owner {\n    string public nome;\n    string public email;\n    bool email_valido;\n    int cpf;\n    string dataNascimento;\n    \n    event LogPersonEmailAlterado(address _pessoa, string emailAlterado); \n\n    function Pessoa(string _nome, string _email, int _cpf, string _dataNascimento, address _enderecoRegistroPessoas) public {\n        nome = _nome;\n        email = _email;\n        cpf = _cpf;\n        dataNascimento = _dataNascimento;\n        dono = msg.sender;\n        RegistroPessoas(_enderecoRegistroPessoas).salvaPessoas(this);\n    }\n    \n    function mudarEmail(string _newMail) public apenasDono {\n       email = _newMail;\n    }\n}",
  "sourcePath": "/Users/hgleite/Documents/henrique/GoBlockchain/Contratos/contracts/pessoa/Pessoa.sol",
  "compiler": {
    "name": "solc",
    "version": "0.4.18+commit.9cf6e910.Emscripten.clang"
  },
  "schemaVersion": "1.0.1",
  "updatedAt": "2017-12-01T20:45:13.645Z"
}