{
  "contractName": "RegistroPessoas",
  "abi": [
    {
      "constant": false,
      "inputs": [
        {
          "name": "enderecoContratoPessoa",
          "type": "address"
        }
      ],
      "name": "salvaPessoas",
      "outputs": [
        {
          "name": "",
          "type": "bool"
        }
      ],
      "payable": false,
      "stateMutability": "nonpayable",
      "type": "function"
    },
    {
      "constant": true,
      "inputs": [
        {
          "name": "",
          "type": "uint256"
        }
      ],
      "name": "listaContaPessoas",
      "outputs": [
        {
          "name": "",
          "type": "address"
        }
      ],
      "payable": false,
      "stateMutability": "view",
      "type": "function"
    },
    {
      "anonymous": false,
      "inputs": [
        {
          "indexed": false,
          "name": "_contaPessoa",
          "type": "address"
        },
        {
          "indexed": false,
          "name": "_contaContratoPessoa",
          "type": "address"
        }
      ],
      "name": "LogPersonSalvaNoRegistro",
      "type": "event"
    }
  ],
  "bytecode": "0x6060604052341561000f57600080fd5b61033f8061001e6000396000f30060606040526004361061004c576000357c0100000000000000000000000000000000000000000000000000000000900463ffffffff1680639f40968214610051578063a48185f3146100a2575b600080fd5b341561005c57600080fd5b610088600480803573ffffffffffffffffffffffffffffffffffffffff16906020019091905050610105565b604051808215151515815260200191505060405180910390f35b34156100ad57600080fd5b6100c36004808035906020019091905050610283565b604051808273ffffffffffffffffffffffffffffffffffffffff1673ffffffffffffffffffffffffffffffffffffffff16815260200191505060405180910390f35b600080805480600101828161011a91906102c2565b9160005260206000209001600033909190916101000a81548173ffffffffffffffffffffffffffffffffffffffff021916908373ffffffffffffffffffffffffffffffffffffffff1602179055505081600160003373ffffffffffffffffffffffffffffffffffffffff1673ffffffffffffffffffffffffffffffffffffffff16815260200190815260200160002060006101000a81548173ffffffffffffffffffffffffffffffffffffffff021916908373ffffffffffffffffffffffffffffffffffffffff1602179055507fc0dfd55d281d0c203b3b6f202e37b5e54b76bbda0f0246a9781c8b8957dfaf5d3330604051808373ffffffffffffffffffffffffffffffffffffffff1673ffffffffffffffffffffffffffffffffffffffff1681526020018273ffffffffffffffffffffffffffffffffffffffff1673ffffffffffffffffffffffffffffffffffffffff1681526020019250505060405180910390a1919050565b60008181548110151561029257fe5b90600052602060002090016000915054906101000a900473ffffffffffffffffffffffffffffffffffffffff1681565b8154818355818115116102e9578183600052602060002091820191016102e891906102ee565b5b505050565b61031091905b8082111561030c5760008160009055506001016102f4565b5090565b905600a165627a7a723058205eaec0f7eaedf0c91886af44cf52c5743e7cb3a73524a2dc7382df851ce3f12a0029",
  "source": "pragma solidity ^0.4.16;\n\ncontract RegistroPessoas {\n    address[] public listaContaPessoas;\n    mapping(address => address) mapaPessoas;\n    event LogPersonSalvaNoRegistro(address _contaPessoa, address _contaContratoPessoa); \n\n    function salvaPessoas(address enderecoContratoPessoa) public returns(bool) {\n        listaContaPessoas.push(msg.sender);\n        mapaPessoas[msg.sender] = enderecoContratoPessoa;  \n        LogPersonSalvaNoRegistro(msg.sender, this);\n    }\n}",
  "sourcePath": "/Users/hgleite/Documents/henrique/GoBlockchain/Contratos/contracts/registros/RegistrosPessoas.sol",
  "compiler": {
    "name": "solc",
    "version": "0.4.18+commit.9cf6e910.Emscripten.clang"
  },
  "schemaVersion": "1.0.1",
  "updatedAt": "2017-12-01T20:45:13.645Z"
}