{
  "contractName": "TesteTruffle",
  "abi": [
    {
      "constant": true,
      "inputs": [],
      "name": "getNome",
      "outputs": [
        {
          "name": "",
          "type": "string"
        }
      ],
      "payable": false,
      "stateMutability": "view",
      "type": "function"
    },
    {
      "constant": true,
      "inputs": [],
      "name": "nomeTeste",
      "outputs": [
        {
          "name": "",
          "type": "string"
        }
      ],
      "payable": false,
      "stateMutability": "view",
      "type": "function"
    },
    {
      "inputs": [],
      "payable": false,
      "stateMutability": "nonpayable",
      "type": "constructor"
    }
  ],
  "bytecode": "0x6060604052341561000f57600080fd5b6040805190810160405280600881526020017f68656e72697175650000000000000000000000000000000000000000000000008152506000908051906020019061005a929190610060565b50610105565b828054600181600116156101000203166002900490600052602060002090601f016020900481019282601f106100a157805160ff19168380011785556100cf565b828001600101855582156100cf579182015b828111156100ce5782518255916020019190600101906100b3565b5b5090506100dc91906100e0565b5090565b61010291905b808211156100fe5760008160009055506001016100e6565b5090565b90565b6102f3806101146000396000f30060606040526004361061004c576000357c0100000000000000000000000000000000000000000000000000000000900463ffffffff1680637e34a4231461005157806398aa1394146100df575b600080fd5b341561005c57600080fd5b61006461016d565b6040518080602001828103825283818151815260200191508051906020019080838360005b838110156100a4578082015181840152602081019050610089565b50505050905090810190601f1680156100d15780820380516001836020036101000a031916815260200191505b509250505060405180910390f35b34156100ea57600080fd5b6100f2610215565b6040518080602001828103825283818151815260200191508051906020019080838360005b83811015610132578082015181840152602081019050610117565b50505050905090810190601f16801561015f5780820380516001836020036101000a031916815260200191505b509250505060405180910390f35b6101756102b3565b60008054600181600116156101000203166002900480601f01602080910402602001604051908101604052809291908181526020018280546001816001161561010002031660029004801561020b5780601f106101e05761010080835404028352916020019161020b565b820191906000526020600020905b8154815290600101906020018083116101ee57829003601f168201915b5050505050905090565b60008054600181600116156101000203166002900480601f0160208091040260200160405190810160405280929190818152602001828054600181600116156101000203166002900480156102ab5780601f10610280576101008083540402835291602001916102ab565b820191906000526020600020905b81548152906001019060200180831161028e57829003601f168201915b505050505081565b6020604051908101604052806000815250905600a165627a7a723058204750ec8bbfe3a83c28346e84e9c86f9661d11a3e09f4bf28fb3760c44483f1f60029",
  "source": "pragma solidity ^0.4.13;\n\ncontract TesteTruffle {\n    string public nomeTeste;\n    function TesteTruffle() public {\n        nomeTeste = \"henrique\";\n    }\n\n    function getNome() public view returns(string) {\n        return nomeTeste;\n    }\n}",
  "sourcePath": "/Users/hgleite/Documents/henrique/GoBlockchain/GBC_contratos/Contratos/contracts/TesteTruffle.sol",
  "compiler": {
    "name": "solc",
    "version": "0.4.18+commit.9cf6e910.Emscripten.clang"
  },
  "schemaVersion": "1.0.1",
  "updatedAt": "2017-12-02T20:29:34.030Z"
}