{
  "contractName": "ContractReceiver",
  "abi": [
    {
      "constant": true,
      "inputs": [
        {
          "name": "_from",
          "type": "address"
        },
        {
          "name": "_value",
          "type": "uint256"
        },
        {
          "name": "_data",
          "type": "bytes"
        }
      ],
      "name": "tokenFallback",
      "outputs": [],
      "payable": false,
      "stateMutability": "pure",
      "type": "function"
    }
  ],
  "bytecode": "0x6060604052341561000f57600080fd5b6104548061001e6000396000f300606060405260043610610041576000357c0100000000000000000000000000000000000000000000000000000000900463ffffffff168063c0ee0b8a14610046575b600080fd5b341561005157600080fd5b6100c9600480803573ffffffffffffffffffffffffffffffffffffffff1690602001909190803590602001909190803590602001908201803590602001908080601f016020809104026020016040519081016040528093929190818152602001838380828437820191505050505050919050506100cb565b005b6100d36103b0565b600084826000019073ffffffffffffffffffffffffffffffffffffffff16908173ffffffffffffffffffffffffffffffffffffffff168152505083826020018181525050828260400181905250601883600081518110151561013157fe5b9060200101517f010000000000000000000000000000000000000000000000000000000000000090047f0100000000000000000000000000000000000000000000000000000000000000027f0100000000000000000000000000000000000000000000000000000000000000900463ffffffff169060020a0260108460018151811015156101bb57fe5b9060200101517f010000000000000000000000000000000000000000000000000000000000000090047f0100000000000000000000000000000000000000000000000000000000000000027f0100000000000000000000000000000000000000000000000000000000000000900463ffffffff169060020a02600885600281518110151561024557fe5b9060200101517f010000000000000000000000000000000000000000000000000000000000000090047f0100000000000000000000000000000000000000000000000000000000000000027f0100000000000000000000000000000000000000000000000000000000000000900463ffffffff169060020a028560038151811015156102cd57fe5b9060200101517f010000000000000000000000000000000000000000000000000000000000000090047f0100000000000000000000000000000000000000000000000000000000000000027f010000000000000000000000000000000000000000000000000000000000000090040101019050807c01000000000000000000000000000000000000000000000000000000000282606001907bffffffffffffffffffffffffffffffffffffffffffffffffffffffff191690817bffffffffffffffffffffffffffffffffffffffffffffffffffffffff1916815250505050505050565b608060405190810160405280600073ffffffffffffffffffffffffffffffffffffffff168152602001600081526020016103e8610414565b815260200160007bffffffffffffffffffffffffffffffffffffffffffffffffffffffff191681525090565b6020604051908101604052806000815250905600a165627a7a723058200bcb8c42c821737cccba82a04cc7de961ce9bc37bcb2fe860b9e682d57c382e00029",
  "source": "pragma solidity ^0.4.18;\n\n /*\n * Contract that is working with ERC223 tokens\n */ \n contract ContractReceiver {\n     \n    struct TKN {\n        address sender;\n        uint value;\n        bytes data;\n        bytes4 sig;\n    }\n    \n    function tokenFallback(address _from, uint _value, bytes _data) public pure {\n      TKN memory tkn;\n      tkn.sender = _from;\n      tkn.value = _value;\n      tkn.data = _data;\n      uint32 u = uint32(_data[3]) + (uint32(_data[2]) << 8) + (uint32(_data[1]) << 16) + (uint32(_data[0]) << 24);\n      tkn.sig = bytes4(u);\n      \n      /* tkn variable is analogue of msg variable of Ether transaction\n      *  tkn.sender is person who initiated this token transaction   (analogue of msg.sender)\n      *  tkn.value the number of tokens that were sent   (analogue of msg.value)\n      *  tkn.data is data of token transaction   (analogue of msg.data)\n      *  tkn.sig is 4 bytes signature of function\n      *  if data of token transaction is a function execution\n      */\n    }\n}",
  "sourcePath": "/Users/hgleite/Documents/henrique/GoBlockchain/GBC_contratos/Token/contracts/goblockchain/token/ContractReceiver.sol",
  "compiler": {
    "name": "solc",
    "version": "0.4.18+commit.9cf6e910.Emscripten.clang"
  },
  "schemaVersion": "1.0.1",
  "updatedAt": "2017-12-12T12:48:11.944Z"
}