{
  "contractName": "Person",
  "abi": [
    {
      "constant": true,
      "inputs": [],
      "name": "retornaValidacoes",
      "outputs": [
        {
          "name": "",
          "type": "uint256"
        }
      ],
      "payable": false,
      "stateMutability": "view",
      "type": "function"
    },
    {
      "constant": true,
      "inputs": [],
      "name": "name",
      "outputs": [
        {
          "name": "",
          "type": "string"
        }
      ],
      "payable": false,
      "stateMutability": "view",
      "type": "function"
    },
    {
      "constant": true,
      "inputs": [],
      "name": "document",
      "outputs": [
        {
          "name": "",
          "type": "string"
        }
      ],
      "payable": false,
      "stateMutability": "view",
      "type": "function"
    },
    {
      "constant": false,
      "inputs": [
        {
          "name": "_valid",
          "type": "bool"
        }
      ],
      "name": "validatePerson",
      "outputs": [],
      "payable": false,
      "stateMutability": "nonpayable",
      "type": "function"
    },
    {
      "constant": false,
      "inputs": [
        {
          "name": "_newDocument",
          "type": "string"
        }
      ],
      "name": "changeDocument",
      "outputs": [],
      "payable": false,
      "stateMutability": "nonpayable",
      "type": "function"
    },
    {
      "constant": true,
      "inputs": [],
      "name": "birthDate",
      "outputs": [
        {
          "name": "",
          "type": "string"
        }
      ],
      "payable": false,
      "stateMutability": "view",
      "type": "function"
    },
    {
      "constant": true,
      "inputs": [],
      "name": "isPhoneValid",
      "outputs": [
        {
          "name": "",
          "type": "bool"
        }
      ],
      "payable": false,
      "stateMutability": "view",
      "type": "function"
    },
    {
      "constant": true,
      "inputs": [],
      "name": "email",
      "outputs": [
        {
          "name": "",
          "type": "string"
        }
      ],
      "payable": false,
      "stateMutability": "view",
      "type": "function"
    },
    {
      "constant": false,
      "inputs": [],
      "name": "destroy",
      "outputs": [],
      "payable": false,
      "stateMutability": "nonpayable",
      "type": "function"
    },
    {
      "constant": true,
      "inputs": [],
      "name": "owner",
      "outputs": [
        {
          "name": "",
          "type": "address"
        }
      ],
      "payable": false,
      "stateMutability": "view",
      "type": "function"
    },
    {
      "constant": true,
      "inputs": [],
      "name": "phone",
      "outputs": [
        {
          "name": "",
          "type": "string"
        }
      ],
      "payable": false,
      "stateMutability": "view",
      "type": "function"
    },
    {
      "constant": false,
      "inputs": [
        {
          "name": "_newPhoto",
          "type": "string"
        }
      ],
      "name": "changePhoto",
      "outputs": [],
      "payable": false,
      "stateMutability": "nonpayable",
      "type": "function"
    },
    {
      "constant": true,
      "inputs": [],
      "name": "validation",
      "outputs": [
        {
          "name": "positiveValidators",
          "type": "uint8"
        },
        {
          "name": "negativeValidators",
          "type": "uint8"
        }
      ],
      "payable": false,
      "stateMutability": "view",
      "type": "function"
    },
    {
      "constant": false,
      "inputs": [
        {
          "name": "_contractPerson",
          "type": "address"
        },
        {
          "name": "_valid",
          "type": "bool"
        }
      ],
      "name": "validatePerson",
      "outputs": [],
      "payable": false,
      "stateMutability": "nonpayable",
      "type": "function"
    },
    {
      "constant": true,
      "inputs": [
        {
          "name": "_from",
          "type": "address"
        },
        {
          "name": "_value",
          "type": "uint256"
        },
        {
          "name": "_data",
          "type": "bytes"
        }
      ],
      "name": "tokenFallback",
      "outputs": [],
      "payable": false,
      "stateMutability": "pure",
      "type": "function"
    },
    {
      "constant": false,
      "inputs": [
        {
          "name": "_newPhone",
          "type": "string"
        }
      ],
      "name": "changePhone",
      "outputs": [],
      "payable": false,
      "stateMutability": "nonpayable",
      "type": "function"
    },
    {
      "constant": false,
      "inputs": [
        {
          "name": "_newEmail",
          "type": "string"
        }
      ],
      "name": "changeEmail",
      "outputs": [],
      "payable": false,
      "stateMutability": "nonpayable",
      "type": "function"
    },
    {
      "constant": true,
      "inputs": [],
      "name": "photo",
      "outputs": [
        {
          "name": "",
          "type": "string"
        }
      ],
      "payable": false,
      "stateMutability": "view",
      "type": "function"
    },
    {
      "constant": false,
      "inputs": [
        {
          "name": "newOwner",
          "type": "address"
        }
      ],
      "name": "transferOwnership",
      "outputs": [],
      "payable": false,
      "stateMutability": "nonpayable",
      "type": "function"
    },
    {
      "constant": false,
      "inputs": [
        {
          "name": "_recipient",
          "type": "address"
        }
      ],
      "name": "destroyAndSend",
      "outputs": [],
      "payable": false,
      "stateMutability": "nonpayable",
      "type": "function"
    },
    {
      "constant": true,
      "inputs": [],
      "name": "isEmailValid",
      "outputs": [
        {
          "name": "",
          "type": "bool"
        }
      ],
      "payable": false,
      "stateMutability": "view",
      "type": "function"
    },
    {
      "constant": true,
      "inputs": [],
      "name": "isDocumentValid",
      "outputs": [
        {
          "name": "",
          "type": "bool"
        }
      ],
      "payable": false,
      "stateMutability": "view",
      "type": "function"
    },
    {
      "inputs": [
        {
          "name": "_name",
          "type": "string"
        },
        {
          "name": "_document",
          "type": "string"
        },
        {
          "name": "_email",
          "type": "string"
        },
        {
          "name": "_birthDate",
          "type": "string"
        },
        {
          "name": "_phone",
          "type": "string"
        }
      ],
      "payable": false,
      "stateMutability": "nonpayable",
      "type": "constructor"
    },
    {
      "anonymous": false,
      "inputs": [
        {
          "indexed": false,
          "name": "_validatorAddress",
          "type": "address"
        },
        {
          "indexed": false,
          "name": "_senderOrigin",
          "type": "address"
        },
        {
          "indexed": false,
          "name": "_contractPersonAddress",
          "type": "address"
        },
        {
          "indexed": false,
          "name": "_isValid",
          "type": "bool"
        }
      ],
      "name": "LogValid",
      "type": "event"
    },
    {
      "anonymous": false,
      "inputs": [
        {
          "indexed": false,
          "name": "_email",
          "type": "string"
        },
        {
          "indexed": false,
          "name": "_contractPerson",
          "type": "address"
        }
      ],
      "name": "LogChangeEmail",
      "type": "event"
    },
    {
      "anonymous": false,
      "inputs": [
        {
          "indexed": false,
          "name": "_document",
          "type": "string"
        },
        {
          "indexed": false,
          "name": "_contractPerson",
          "type": "address"
        }
      ],
      "name": "LogChangeDocument",
      "type": "event"
    },
    {
      "anonymous": false,
      "inputs": [
        {
          "indexed": false,
          "name": "_phone",
          "type": "string"
        },
        {
          "indexed": false,
          "name": "_contractPerson",
          "type": "address"
        }
      ],
      "name": "LogChangePhone",
      "type": "event"
    },
    {
      "anonymous": false,
      "inputs": [
        {
          "indexed": false,
          "name": "_photo",
          "type": "string"
        },
        {
          "indexed": false,
          "name": "_contractPerson",
          "type": "address"
        }
      ],
      "name": "LogChangePhoto",
      "type": "event"
    },
    {
      "anonymous": false,
      "inputs": [
        {
          "indexed": true,
          "name": "previousOwner",
          "type": "address"
        },
        {
          "indexed": true,
          "name": "newOwner",
          "type": "address"
        }
      ],
      "name": "OwnershipTransferred",
      "type": "event"
    }
  ],
  "bytecode": "0x606060405234156200001057600080fd5b60405162001e3d38038062001e3d83398101604052808051820191906020018051820191906020018051820191906020018051820191906020018051820191905050336000806101000a81548173ffffffffffffffffffffffffffffffffffffffff021916908373ffffffffffffffffffffffffffffffffffffffff1602179055508460019080519060200190620000aa9291906200011a565b508360029080519060200190620000c39291906200011a565b508260049080519060200190620000dc9291906200011a565b508160089080519060200190620000f59291906200011a565b5080600690805190602001906200010e9291906200011a565b505050505050620001c9565b828054600181600116156101000203166002900490600052602060002090601f016020900481019282601f106200015d57805160ff19168380011785556200018e565b828001600101855582156200018e579182015b828111156200018d57825182559160200191906001019062000170565b5b5090506200019d9190620001a1565b5090565b620001c691905b80821115620001c2576000816000905550600101620001a8565b5090565b90565b611c6480620001d96000396000f300606060405260043610610127576000357c0100000000000000000000000000000000000000000000000000000000900463ffffffff1680623c45381461012c57806306fdde03146101555780631f4339d8146101e357806339da2607146102715780635fc5beaf1461029657806361004f39146102f35780637239bef414610381578063820e93f5146103ae57806383197ef01461043c5780638da5cb5b146104515780639284f497146104a6578063a7f8204514610534578063ae4b37e414610591578063b6a343d4146105cd578063c0ee0b8a14610611578063d1f9b8dc14610696578063d553357d146106f3578063d76ec1a314610750578063f2fde38b146107de578063f5074f4114610817578063fc73743b14610850578063fcf3e7061461087d575b600080fd5b341561013757600080fd5b61013f6108aa565b6040518082815260200191505060405180910390f35b341561016057600080fd5b6101686108ba565b6040518080602001828103825283818151815260200191508051906020019080838360005b838110156101a857808201518184015260208101905061018d565b50505050905090810190601f1680156101d55780820380516001836020036101000a031916815260200191505b509250505060405180910390f35b34156101ee57600080fd5b6101f6610958565b6040518080602001828103825283818151815260200191508051906020019080838360005b8381101561023657808201518184015260208101905061021b565b50505050905090810190601f1680156102635780820380516001836020036101000a031916815260200191505b509250505060405180910390f35b341561027c57600080fd5b610294600480803515159060200190919050506109f6565b005b34156102a157600080fd5b6102f1600480803590602001908201803590602001908080601f01602080910402602001604051908101604052809392919081815260200183838082843782019150505050505091905050610c00565b005b34156102fe57600080fd5b610306610d7e565b6040518080602001828103825283818151815260200191508051906020019080838360005b8381101561034657808201518184015260208101905061032b565b50505050905090810190601f1680156103735780820380516001836020036101000a031916815260200191505b509250505060405180910390f35b341561038c57600080fd5b610394610e1c565b604051808215151515815260200191505060405180910390f35b34156103b957600080fd5b6103c1610e2f565b6040518080602001828103825283818151815260200191508051906020019080838360005b838110156104015780820151818401526020810190506103e6565b50505050905090810190601f16801561042e5780820380516001836020036101000a031916815260200191505b509250505060405180910390f35b341561044757600080fd5b61044f610ecd565b005b341561045c57600080fd5b610464610f62565b604051808273ffffffffffffffffffffffffffffffffffffffff1673ffffffffffffffffffffffffffffffffffffffff16815260200191505060405180910390f35b34156104b157600080fd5b6104b9610f87565b6040518080602001828103825283818151815260200191508051906020019080838360005b838110156104f95780820151818401526020810190506104de565b50505050905090810190601f1680156105265780820380516001836020036101000a031916815260200191505b509250505060405180910390f35b341561053f57600080fd5b61058f600480803590602001908201803590602001908080601f01602080910402602001604051908101604052809392919081815260200183838082843782019150505050505091905050611025565b005b341561059c57600080fd5b6105a461116a565b604051808360ff1660ff1681526020018260ff1660ff1681526020019250505060405180910390f35b34156105d857600080fd5b61060f600480803573ffffffffffffffffffffffffffffffffffffffff169060200190919080351515906020019091905050611196565b005b341561061c57600080fd5b610694600480803573ffffffffffffffffffffffffffffffffffffffff1690602001909190803590602001909190803590602001908201803590602001908080601f01602080910402602001604051908101604052809392919081815260200183838082843782019150505050505091905050611281565b005b34156106a157600080fd5b6106f1600480803590602001908201803590602001908080601f01602080910402602001604051908101604052809392919081815260200183838082843782019150505050505091905050611566565b005b34156106fe57600080fd5b61074e600480803590602001908201803590602001908080601f016020809104026020016040519081016040528093929190818152602001838380828437820191505050505050919050506116e4565b005b341561075b57600080fd5b610763611862565b6040518080602001828103825283818151815260200191508051906020019080838360005b838110156107a3578082015181840152602081019050610788565b50505050905090810190601f1680156107d05780820380516001836020036101000a031916815260200191505b509250505060405180910390f35b34156107e957600080fd5b610815600480803573ffffffffffffffffffffffffffffffffffffffff16906020019091905050611900565b005b341561082257600080fd5b61084e600480803573ffffffffffffffffffffffffffffffffffffffff16906020019091905050611a55565b005b341561085b57600080fd5b610863611ac9565b604051808215151515815260200191505060405180910390f35b341561088857600080fd5b610890611adc565b604051808215151515815260200191505060405180910390f35b6000600960000180549050905090565b60018054600181600116156101000203166002900480601f0160208091040260200160405190810160405280929190818152602001828054600181600116156101000203166002900480156109505780601f1061092557610100808354040283529160200191610950565b820191906000526020600020905b81548152906001019060200180831161093357829003601f168201915b505050505081565b60028054600181600116156101000203166002900480601f0160208091040260200160405190810160405280929190818152602001828054600181600116156101000203166002900480156109ee5780601f106109c3576101008083540402835291602001916109ee565b820191906000526020600020905b8154815290600101906020018083116109d157829003601f168201915b505050505081565b6000809054906101000a900473ffffffffffffffffffffffffffffffffffffffff1673ffffffffffffffffffffffffffffffffffffffff163273ffffffffffffffffffffffffffffffffffffffff1614151515610a5257600080fd5b60096000018054806001018281610a699190611aef565b9160005260206000209001600033909190916101000a81548173ffffffffffffffffffffffffffffffffffffffff021916908373ffffffffffffffffffffffffffffffffffffffff160217905550508015610af4576001600960010160008282829054906101000a900460ff160192506101000a81548160ff021916908360ff160217905550610b26565b6001600960010160018282829054906101000a900460ff160192506101000a81548160ff021916908360ff1602179055505b7f9f6f13b3ae7df512f4852c33615ba7af1c2b21bea18d00f10d73d4c0021fc11f33323084604051808573ffffffffffffffffffffffffffffffffffffffff1673ffffffffffffffffffffffffffffffffffffffff1681526020018473ffffffffffffffffffffffffffffffffffffffff1673ffffffffffffffffffffffffffffffffffffffff1681526020018373ffffffffffffffffffffffffffffffffffffffff1673ffffffffffffffffffffffffffffffffffffffff1681526020018215151515815260200194505050505060405180910390a150565b6000809054906101000a900473ffffffffffffffffffffffffffffffffffffffff1673ffffffffffffffffffffffffffffffffffffffff163373ffffffffffffffffffffffffffffffffffffffff16141515610c5b57600080fd5b8060029080519060200190610c71929190611b1b565b506000600360006101000a81548160ff0219169083151502179055507f9db11307267c890ab25230a11fbb489c4fd763910b0b7b448e795a78faa8d5c660023060405180806020018373ffffffffffffffffffffffffffffffffffffffff1673ffffffffffffffffffffffffffffffffffffffff168152602001828103825284818154600181600116156101000203166002900481526020019150805460018160011615610100020316600290048015610d6c5780601f10610d4157610100808354040283529160200191610d6c565b820191906000526020600020905b815481529060010190602001808311610d4f57829003601f168201915b5050935050505060405180910390a150565b60088054600181600116156101000203166002900480601f016020809104026020016040519081016040528092919081815260200182805460018160011615610100020316600290048015610e145780601f10610de957610100808354040283529160200191610e14565b820191906000526020600020905b815481529060010190602001808311610df757829003601f168201915b505050505081565b600760009054906101000a900460ff1681565b60048054600181600116156101000203166002900480601f016020809104026020016040519081016040528092919081815260200182805460018160011615610100020316600290048015610ec55780601f10610e9a57610100808354040283529160200191610ec5565b820191906000526020600020905b815481529060010190602001808311610ea857829003601f168201915b505050505081565b6000809054906101000a900473ffffffffffffffffffffffffffffffffffffffff1673ffffffffffffffffffffffffffffffffffffffff163373ffffffffffffffffffffffffffffffffffffffff16141515610f2857600080fd5b6000809054906101000a900473ffffffffffffffffffffffffffffffffffffffff1673ffffffffffffffffffffffffffffffffffffffff16ff5b6000809054906101000a900473ffffffffffffffffffffffffffffffffffffffff1681565b60068054600181600116156101000203166002900480601f01602080910402602001604051908101604052809291908181526020018280546001816001161561010002031660029004801561101d5780601f10610ff25761010080835404028352916020019161101d565b820191906000526020600020905b81548152906001019060200180831161100057829003601f168201915b505050505081565b6000809054906101000a900473ffffffffffffffffffffffffffffffffffffffff1673ffffffffffffffffffffffffffffffffffffffff163373ffffffffffffffffffffffffffffffffffffffff1614151561108057600080fd5b80600b9080519060200190611096929190611b1b565b507ffb78ed0379f8f6bf97a4912e5cbca7dad343a5d6f3ad9151a4f90cb5b9f37339813060405180806020018373ffffffffffffffffffffffffffffffffffffffff1673ffffffffffffffffffffffffffffffffffffffff168152602001828103825284818151815260200191508051906020019080838360005b8381101561112c578082015181840152602081019050611111565b50505050905090810190601f1680156111595780820380516001836020036101000a031916815260200191505b50935050505060405180910390a150565b60098060010160009054906101000a900460ff16908060010160019054906101000a900460ff16905082565b60008060009054906101000a900473ffffffffffffffffffffffffffffffffffffffff1673ffffffffffffffffffffffffffffffffffffffff163373ffffffffffffffffffffffffffffffffffffffff161415156111f357600080fd5b8290508073ffffffffffffffffffffffffffffffffffffffff166339da2607836040518263ffffffff167c01000000000000000000000000000000000000000000000000000000000281526004018082151515158152602001915050600060405180830381600087803b151561126857600080fd5b6102c65a03f1151561127957600080fd5b505050505050565b611289611b9b565b600084826000019073ffffffffffffffffffffffffffffffffffffffff16908173ffffffffffffffffffffffffffffffffffffffff16815250508382602001818152505082826040018190525060188360008151811015156112e757fe5b9060200101517f010000000000000000000000000000000000000000000000000000000000000090047f0100000000000000000000000000000000000000000000000000000000000000027f0100000000000000000000000000000000000000000000000000000000000000900463ffffffff169060020a02601084600181518110151561137157fe5b9060200101517f010000000000000000000000000000000000000000000000000000000000000090047f0100000000000000000000000000000000000000000000000000000000000000027f0100000000000000000000000000000000000000000000000000000000000000900463ffffffff169060020a0260088560028151811015156113fb57fe5b9060200101517f010000000000000000000000000000000000000000000000000000000000000090047f0100000000000000000000000000000000000000000000000000000000000000027f0100000000000000000000000000000000000000000000000000000000000000900463ffffffff169060020a0285600381518110151561148357fe5b9060200101517f010000000000000000000000000000000000000000000000000000000000000090047f0100000000000000000000000000000000000000000000000000000000000000027f010000000000000000000000000000000000000000000000000000000000000090040101019050807c01000000000000000000000000000000000000000000000000000000000282606001907bffffffffffffffffffffffffffffffffffffffffffffffffffffffff191690817bffffffffffffffffffffffffffffffffffffffffffffffffffffffff1916815250505050505050565b6000809054906101000a900473ffffffffffffffffffffffffffffffffffffffff1673ffffffffffffffffffffffffffffffffffffffff163373ffffffffffffffffffffffffffffffffffffffff161415156115c157600080fd5b80600690805190602001906115d7929190611b1b565b506000600760006101000a81548160ff0219169083151502179055507f6fe8218097d86049710fdbc10aba35ab9dff2f538916edae9ef9ef7894e03c7260063060405180806020018373ffffffffffffffffffffffffffffffffffffffff1673ffffffffffffffffffffffffffffffffffffffff1681526020018281038252848181546001816001161561010002031660029004815260200191508054600181600116156101000203166002900480156116d25780601f106116a7576101008083540402835291602001916116d2565b820191906000526020600020905b8154815290600101906020018083116116b557829003601f168201915b5050935050505060405180910390a150565b6000809054906101000a900473ffffffffffffffffffffffffffffffffffffffff1673ffffffffffffffffffffffffffffffffffffffff163373ffffffffffffffffffffffffffffffffffffffff1614151561173f57600080fd5b8060049080519060200190611755929190611b1b565b506000600560006101000a81548160ff0219169083151502179055507ff4d8d1acc575c87cbf8e95fe82372c70844ac3d0e059947809d113960079def860043060405180806020018373ffffffffffffffffffffffffffffffffffffffff1673ffffffffffffffffffffffffffffffffffffffff1681526020018281038252848181546001816001161561010002031660029004815260200191508054600181600116156101000203166002900480156118505780601f1061182557610100808354040283529160200191611850565b820191906000526020600020905b81548152906001019060200180831161183357829003601f168201915b5050935050505060405180910390a150565b600b8054600181600116156101000203166002900480601f0160208091040260200160405190810160405280929190818152602001828054600181600116156101000203166002900480156118f85780601f106118cd576101008083540402835291602001916118f8565b820191906000526020600020905b8154815290600101906020018083116118db57829003601f168201915b505050505081565b6000809054906101000a900473ffffffffffffffffffffffffffffffffffffffff1673ffffffffffffffffffffffffffffffffffffffff163373ffffffffffffffffffffffffffffffffffffffff1614151561195b57600080fd5b600073ffffffffffffffffffffffffffffffffffffffff168173ffffffffffffffffffffffffffffffffffffffff161415151561199757600080fd5b8073ffffffffffffffffffffffffffffffffffffffff166000809054906101000a900473ffffffffffffffffffffffffffffffffffffffff1673ffffffffffffffffffffffffffffffffffffffff167f8be0079c531659141344cd1fd0a4f28419497f9722a3daafe3b4186f6b6457e060405160405180910390a3806000806101000a81548173ffffffffffffffffffffffffffffffffffffffff021916908373ffffffffffffffffffffffffffffffffffffffff16021790555050565b6000809054906101000a900473ffffffffffffffffffffffffffffffffffffffff1673ffffffffffffffffffffffffffffffffffffffff163373ffffffffffffffffffffffffffffffffffffffff16141515611ab057600080fd5b8073ffffffffffffffffffffffffffffffffffffffff16ff5b600560009054906101000a900460ff1681565b600360009054906101000a900460ff1681565b815481835581811511611b1657818360005260206000209182019101611b159190611bff565b5b505050565b828054600181600116156101000203166002900490600052602060002090601f016020900481019282601f10611b5c57805160ff1916838001178555611b8a565b82800160010185558215611b8a579182015b82811115611b89578251825591602001919060010190611b6e565b5b509050611b979190611bff565b5090565b608060405190810160405280600073ffffffffffffffffffffffffffffffffffffffff16815260200160008152602001611bd3611c24565b815260200160007bffffffffffffffffffffffffffffffffffffffffffffffffffffffff191681525090565b611c2191905b80821115611c1d576000816000905550600101611c05565b5090565b90565b6020604051908101604052806000815250905600a165627a7a72305820c46945ab6b143605d8999e83eee546e83df2dbcbb6aa49d60f2eb6de196b3d690029",
  "source": "\npragma solidity ^0.4.16;\n\nimport \"../../zeppelin/lifecycle/Destructible.sol\";\nimport \"../token/ContractReceiver.sol\";\n\ncontract Person is Destructible, ContractReceiver {\n\n    string public name;\n    string public document;\n    bool public isDocumentValid;\n    string public email;\n    bool public isEmailValid;\n    string public phone;\n    bool public isPhoneValid;    \n    string public birthDate;\n    Validation public validation;\n    string public photo;\n\n    event LogValid(address _validatorAddress, address _senderOrigin, address _contractPersonAddress, bool _isValid);\n    event LogChangeEmail(string _email, address _contractPerson);\n    event LogChangeDocument(string _document, address _contractPerson);\n    event LogChangePhone(string _phone, address _contractPerson);\n    event LogChangePhoto(string _photo, address _contractPerson);\n\n\n    function Person (string _name, string _document, string _email, string _birthDate, string _phone) public\n    {\n        name = _name;\n        document = _document;\n        email = _email;\n        birthDate = _birthDate;\n        phone = _phone;\n    }\n\n    struct Validation {\n        address[] validators;\n        uint8 positiveValidators;\n        uint8 negativeValidators;\n    }\n\n    function changeEmail (string _newEmail) public onlyOwner\n    {\n        email = _newEmail;\n        isEmailValid = false;\n        LogChangeEmail(email, this);\n    }\n\n    function changeDocument (string _newDocument) public onlyOwner\n    {\n        document = _newDocument;\n        isDocumentValid = false;\n        LogChangeDocument(document, this);\n    }\n\n    function changePhone (string _newPhone) public onlyOwner\n    {\n        phone = _newPhone;\n        isPhoneValid = false;\n        LogChangePhone(phone, this);\n    }        \n\n    function changePhoto (string _newPhoto) public onlyOwner\n    {\n        photo = _newPhoto;\n        LogChangePhoto(_newPhoto, this);\n    }\n\n    function validatePerson(bool _valid) public\n    {\n        require(tx.origin != owner);\n        validation.validators.push(msg.sender);\n        if (_valid){\n            validation.positiveValidators += 1;\n        } else {\n            validation.negativeValidators += 1;\n        }\n        LogValid(msg.sender, tx.origin, this, _valid);\n    }\n\n    function validatePerson(address _contractPerson, bool _valid) public onlyOwner\n    {\n        Person person = Person(_contractPerson);\n        person.validatePerson(_valid);\n    }\n\n    function retornaValidacoes() public view returns (uint) {\n        return validation.validators.length;\n    }\n}\n\n",
  "sourcePath": "/Users/hgleite/Documents/henrique/GoBlockchain/GBC_contratos/Token/contracts/goblockchain/identity/Person.sol",
  "compiler": {
    "name": "solc",
    "version": "0.4.18+commit.9cf6e910.Emscripten.clang"
  },
  "schemaVersion": "1.0.1",
  "updatedAt": "2017-12-12T02:15:02.607Z"
}