{
  "contractName": "Student",
  "abi": [
    {
      "constant": true,
      "inputs": [
        {
          "name": "",
          "type": "uint256"
        }
      ],
      "name": "certificates",
      "outputs": [
        {
          "name": "addressTeacher",
          "type": "address"
        },
        {
          "name": "codeCourse",
          "type": "int256"
        },
        {
          "name": "qtdHours",
          "type": "int8"
        },
        {
          "name": "nameCourse",
          "type": "string"
        }
      ],
      "payable": false,
      "stateMutability": "view",
      "type": "function"
    },
    {
      "constant": false,
      "inputs": [],
      "name": "destroy",
      "outputs": [],
      "payable": false,
      "stateMutability": "nonpayable",
      "type": "function"
    },
    {
      "constant": true,
      "inputs": [],
      "name": "owner",
      "outputs": [
        {
          "name": "",
          "type": "address"
        }
      ],
      "payable": false,
      "stateMutability": "view",
      "type": "function"
    },
    {
      "constant": false,
      "inputs": [
        {
          "name": "_addressTeacher",
          "type": "address"
        },
        {
          "name": "_codeCourse",
          "type": "int256"
        }
      ],
      "name": "subscribeCourse",
      "outputs": [],
      "payable": false,
      "stateMutability": "nonpayable",
      "type": "function"
    },
    {
      "constant": false,
      "inputs": [
        {
          "name": "newOwner",
          "type": "address"
        }
      ],
      "name": "transferOwnership",
      "outputs": [],
      "payable": false,
      "stateMutability": "nonpayable",
      "type": "function"
    },
    {
      "constant": false,
      "inputs": [
        {
          "name": "_recipient",
          "type": "address"
        }
      ],
      "name": "destroyAndSend",
      "outputs": [],
      "payable": false,
      "stateMutability": "nonpayable",
      "type": "function"
    },
    {
      "constant": false,
      "inputs": [
        {
          "name": "_addressTeacher",
          "type": "address"
        },
        {
          "name": "_codeCourse",
          "type": "int256"
        },
        {
          "name": "_reputation",
          "type": "int8"
        },
        {
          "name": "_comments",
          "type": "string"
        }
      ],
      "name": "sendReputation",
      "outputs": [],
      "payable": false,
      "stateMutability": "nonpayable",
      "type": "function"
    },
    {
      "inputs": [
        {
          "name": "_addressPersonStudent",
          "type": "address"
        }
      ],
      "payable": false,
      "stateMutability": "nonpayable",
      "type": "constructor"
    },
    {
      "anonymous": false,
      "inputs": [
        {
          "indexed": false,
          "name": "addressTeacher",
          "type": "address"
        },
        {
          "indexed": false,
          "name": "codeCourse",
          "type": "int256"
        }
      ],
      "name": "LogEventReceiveCertificate",
      "type": "event"
    },
    {
      "anonymous": false,
      "inputs": [
        {
          "indexed": true,
          "name": "previousOwner",
          "type": "address"
        },
        {
          "indexed": true,
          "name": "newOwner",
          "type": "address"
        }
      ],
      "name": "OwnershipTransferred",
      "type": "event"
    }
  ],
  "bytecode": "0x6060604052341561000f57600080fd5b60405160208061091b83398101604052808051906020019091905050336000806101000a81548173ffffffffffffffffffffffffffffffffffffffff021916908373ffffffffffffffffffffffffffffffffffffffff16021790555080600160006101000a81548173ffffffffffffffffffffffffffffffffffffffff021916908373ffffffffffffffffffffffffffffffffffffffff1602179055505061085f806100bc6000396000f300606060405260043610610083576000357c0100000000000000000000000000000000000000000000000000000000900463ffffffff168063663b3e221461008857806383197ef0146101885780638da5cb5b1461019d5780639153feef146101f2578063f2fde38b14610234578063f5074f411461026d578063ffb987f6146102a6575b600080fd5b341561009357600080fd5b6100a96004808035906020019091905050610337565b604051808573ffffffffffffffffffffffffffffffffffffffff1673ffffffffffffffffffffffffffffffffffffffff1681526020018481526020018360000b60000b8152602001806020018281038252838181546001816001161561010002031660029004815260200191508054600181600116156101000203166002900480156101765780601f1061014b57610100808354040283529160200191610176565b820191906000526020600020905b81548152906001019060200180831161015957829003601f168201915b50509550505050505060405180910390f35b341561019357600080fd5b61019b6103a2565b005b34156101a857600080fd5b6101b0610437565b604051808273ffffffffffffffffffffffffffffffffffffffff1673ffffffffffffffffffffffffffffffffffffffff16815260200191505060405180910390f35b34156101fd57600080fd5b610232600480803573ffffffffffffffffffffffffffffffffffffffff1690602001909190803590602001909190505061045c565b005b341561023f57600080fd5b61026b600480803573ffffffffffffffffffffffffffffffffffffffff1690602001909190505061052d565b005b341561027857600080fd5b6102a4600480803573ffffffffffffffffffffffffffffffffffffffff16906020019091905050610682565b005b34156102b157600080fd5b610335600480803573ffffffffffffffffffffffffffffffffffffffff1690602001909190803590602001909190803560000b90602001909190803590602001908201803590602001908080601f016020809104026020016040519081016040528093929190818152602001838380828437820191505050505050919050506106f6565b005b60028181548110151561034657fe5b90600052602060002090600402016000915090508060000160009054906101000a900473ffffffffffffffffffffffffffffffffffffffff16908060010154908060020160009054906101000a900460000b9080600301905084565b6000809054906101000a900473ffffffffffffffffffffffffffffffffffffffff1673ffffffffffffffffffffffffffffffffffffffff163373ffffffffffffffffffffffffffffffffffffffff161415156103fd57600080fd5b6000809054906101000a900473ffffffffffffffffffffffffffffffffffffffff1673ffffffffffffffffffffffffffffffffffffffff16ff5b6000809054906101000a900473ffffffffffffffffffffffffffffffffffffffff1681565b60008290508073ffffffffffffffffffffffffffffffffffffffff16639153feef30846000604051602001526040518363ffffffff167c0100000000000000000000000000000000000000000000000000000000028152600401808373ffffffffffffffffffffffffffffffffffffffff1673ffffffffffffffffffffffffffffffffffffffff16815260200182815260200192505050602060405180830381600087803b151561050c57600080fd5b6102c65a03f1151561051d57600080fd5b5050506040518051905050505050565b6000809054906101000a900473ffffffffffffffffffffffffffffffffffffffff1673ffffffffffffffffffffffffffffffffffffffff163373ffffffffffffffffffffffffffffffffffffffff1614151561058857600080fd5b600073ffffffffffffffffffffffffffffffffffffffff168173ffffffffffffffffffffffffffffffffffffffff16141515156105c457600080fd5b8073ffffffffffffffffffffffffffffffffffffffff166000809054906101000a900473ffffffffffffffffffffffffffffffffffffffff1673ffffffffffffffffffffffffffffffffffffffff167f8be0079c531659141344cd1fd0a4f28419497f9722a3daafe3b4186f6b6457e060405160405180910390a3806000806101000a81548173ffffffffffffffffffffffffffffffffffffffff021916908373ffffffffffffffffffffffffffffffffffffffff16021790555050565b6000809054906101000a900473ffffffffffffffffffffffffffffffffffffffff1673ffffffffffffffffffffffffffffffffffffffff163373ffffffffffffffffffffffffffffffffffffffff161415156106dd57600080fd5b8073ffffffffffffffffffffffffffffffffffffffff16ff5b60008490508073ffffffffffffffffffffffffffffffffffffffff1663ffb987f6308686866040518563ffffffff167c0100000000000000000000000000000000000000000000000000000000028152600401808573ffffffffffffffffffffffffffffffffffffffff1673ffffffffffffffffffffffffffffffffffffffff1681526020018481526020018360000b60000b815260200180602001828103825283818151815260200191508051906020019080838360005b838110156107ca5780820151818401526020810190506107af565b50505050905090810190601f1680156107f75780820380516001836020036101000a031916815260200191505b5095505050505050600060405180830381600087803b151561081857600080fd5b6102c65a03f1151561082957600080fd5b50505050505050505600a165627a7a72305820935ff1fd15ce9598c8b75124fb5a5f497c0d5edae69079789cd0f55692ea0d030029",
  "source": "pragma solidity ^0.4.18;\n\nimport \"../../zeppelin/lifecycle/Destructible.sol\";\nimport \"../teacher/Teacher.sol\";\n\ncontract Student is Destructible {\n    address addressStudent;\n    Certificate[] public certificates;\n    event LogEventReceiveCertificate(address addressTeacher, int codeCourse);\n\n    struct Certificate {\n        address addressTeacher;\n        int codeCourse;\n        int8 qtdHours;\n        string nameCourse;\n    }\n\n    function Student(address _addressPersonStudent) public {\n        addressStudent = _addressPersonStudent;\n    }\n\n    function subscribeCourse(address _addressTeacher, int _codeCourse) public {\n        // instanciar o contrato e realizar a inscrição no curso\n        Teacher teacher = Teacher(_addressTeacher);\n        teacher.subscribeCourse(this, _codeCourse);        \n    }\n\n    function sendReputation(address _addressTeacher, int _codeCourse, int8 _reputation, string _comments) public {\n        Teacher teacher = Teacher(_addressTeacher);\n        teacher.sendReputation(this, _codeCourse, _reputation, _comments);\n    }  \n\n    // function gerarCertificado(address _enderecoProfessor, int codigoCurso, string nomeCurso, int8 qtdHoras) public {\n    //     certificados.push (\n    //         Certificados ({\n    //             enderecoContratoProfessor: _enderecoProfessor,\n    //             codigoCurso: codigoCurso,\n    //             qtdHoras: qtdHoras,\n    //             nomeCurso: nomeCurso\n    //         })\n    //     );\n    //     LogEventCertificado(_enderecoProfessor, codigoCurso);\n    // }\n    \n    // function enviarReputacaoCurso(address _enderecoContratoProfessor, int _codigoCurso, uint8 _reputacao, string _comentarios) public {\n    //     Professor prof = Professor(_enderecoContratoProfessor);\n    //     prof.receberReputacao(this, _reputacao, _codigoCurso, _comentarios, true);\n    // }    \n}\n\n",
  "sourcePath": "/Users/hgleite/Documents/henrique/GoBlockchain/GBC_contratos/GBC/contracts/goblockchain/student/Student.sol",
  "compiler": {
    "name": "solc",
    "version": "0.4.18+commit.9cf6e910.Emscripten.clang"
  },
  "schemaVersion": "1.0.1",
  "updatedAt": "2017-12-13T22:05:27.693Z"
}