{
  "contractName": "Teacher",
  "abi": [
    {
      "constant": true,
      "inputs": [
        {
          "name": "_codigoCurso",
          "type": "int256"
        }
      ],
      "name": "getNumVotos",
      "outputs": [
        {
          "name": "",
          "type": "uint256"
        }
      ],
      "payable": false,
      "stateMutability": "view",
      "type": "function"
    },
    {
      "constant": true,
      "inputs": [
        {
          "name": "",
          "type": "uint256"
        }
      ],
      "name": "codeCourses",
      "outputs": [
        {
          "name": "code",
          "type": "int256"
        },
        {
          "name": "qtdPersonLimit",
          "type": "int8"
        },
        {
          "name": "name",
          "type": "string"
        },
        {
          "name": "description",
          "type": "string"
        },
        {
          "name": "qtdHours",
          "type": "uint8"
        },
        {
          "name": "score",
          "type": "int8"
        },
        {
          "name": "price",
          "type": "uint256"
        }
      ],
      "payable": false,
      "stateMutability": "view",
      "type": "function"
    },
    {
      "constant": true,
      "inputs": [
        {
          "name": "_codeCourse",
          "type": "int256"
        }
      ],
      "name": "getTotalStudentByCourse",
      "outputs": [
        {
          "name": "",
          "type": "uint256"
        }
      ],
      "payable": false,
      "stateMutability": "view",
      "type": "function"
    },
    {
      "constant": true,
      "inputs": [],
      "name": "description",
      "outputs": [
        {
          "name": "",
          "type": "string"
        }
      ],
      "payable": false,
      "stateMutability": "view",
      "type": "function"
    },
    {
      "constant": true,
      "inputs": [
        {
          "name": "",
          "type": "int256"
        }
      ],
      "name": "courses",
      "outputs": [
        {
          "name": "code",
          "type": "int256"
        },
        {
          "name": "qtdPersonLimit",
          "type": "int8"
        },
        {
          "name": "name",
          "type": "string"
        },
        {
          "name": "description",
          "type": "string"
        },
        {
          "name": "qtdHours",
          "type": "uint8"
        },
        {
          "name": "score",
          "type": "int8"
        },
        {
          "name": "price",
          "type": "uint256"
        }
      ],
      "payable": false,
      "stateMutability": "view",
      "type": "function"
    },
    {
      "constant": true,
      "inputs": [],
      "name": "owner",
      "outputs": [
        {
          "name": "",
          "type": "address"
        }
      ],
      "payable": false,
      "stateMutability": "view",
      "type": "function"
    },
    {
      "constant": false,
      "inputs": [
        {
          "name": "_addressStudent",
          "type": "address"
        },
        {
          "name": "_codeCourse",
          "type": "int256"
        }
      ],
      "name": "subscribeCourse",
      "outputs": [
        {
          "name": "",
          "type": "bool"
        }
      ],
      "payable": true,
      "stateMutability": "payable",
      "type": "function"
    },
    {
      "constant": true,
      "inputs": [],
      "name": "getTotalCourses",
      "outputs": [
        {
          "name": "",
          "type": "uint256"
        }
      ],
      "payable": false,
      "stateMutability": "view",
      "type": "function"
    },
    {
      "constant": false,
      "inputs": [
        {
          "name": "_codeCourse",
          "type": "int256"
        },
        {
          "name": "_qtdPersonLimit",
          "type": "int8"
        },
        {
          "name": "_name",
          "type": "string"
        },
        {
          "name": "_description",
          "type": "string"
        },
        {
          "name": "_qtdHours",
          "type": "uint8"
        },
        {
          "name": "_price",
          "type": "uint256"
        }
      ],
      "name": "createCourse",
      "outputs": [],
      "payable": false,
      "stateMutability": "nonpayable",
      "type": "function"
    },
    {
      "constant": true,
      "inputs": [],
      "name": "score",
      "outputs": [
        {
          "name": "",
          "type": "uint16"
        }
      ],
      "payable": false,
      "stateMutability": "view",
      "type": "function"
    },
    {
      "constant": false,
      "inputs": [
        {
          "name": "newOwner",
          "type": "address"
        }
      ],
      "name": "transferOwnership",
      "outputs": [],
      "payable": false,
      "stateMutability": "nonpayable",
      "type": "function"
    },
    {
      "constant": false,
      "inputs": [
        {
          "name": "_addressStudent",
          "type": "address"
        },
        {
          "name": "_codeCourse",
          "type": "int256"
        },
        {
          "name": "_reputation",
          "type": "int8"
        },
        {
          "name": "comments",
          "type": "string"
        }
      ],
      "name": "sendReputation",
      "outputs": [],
      "payable": false,
      "stateMutability": "nonpayable",
      "type": "function"
    },
    {
      "inputs": [
        {
          "name": "_addressTeacherPerson",
          "type": "address"
        },
        {
          "name": "_description",
          "type": "string"
        }
      ],
      "payable": false,
      "stateMutability": "nonpayable",
      "type": "constructor"
    },
    {
      "anonymous": false,
      "inputs": [
        {
          "indexed": false,
          "name": "codeCourse",
          "type": "int256"
        }
      ],
      "name": "LogCourseCreated",
      "type": "event"
    },
    {
      "anonymous": false,
      "inputs": [
        {
          "indexed": false,
          "name": "addressStudent",
          "type": "address"
        },
        {
          "indexed": false,
          "name": "codeCourse",
          "type": "int256"
        },
        {
          "indexed": false,
          "name": "value",
          "type": "uint256"
        }
      ],
      "name": "LogStudentRegistered",
      "type": "event"
    },
    {
      "anonymous": false,
      "inputs": [
        {
          "indexed": false,
          "name": "addressStudent",
          "type": "address"
        },
        {
          "indexed": false,
          "name": "_reputation",
          "type": "int8"
        }
      ],
      "name": "LogEventReceiveReputation",
      "type": "event"
    },
    {
      "anonymous": false,
      "inputs": [
        {
          "indexed": true,
          "name": "previousOwner",
          "type": "address"
        },
        {
          "indexed": true,
          "name": "newOwner",
          "type": "address"
        }
      ],
      "name": "OwnershipTransferred",
      "type": "event"
    }
  ],
  "bytecode": "0x606060405234156200001057600080fd5b604051620015663803806200156683398101604052808051906020019091908051820191905050336000806101000a81548173ffffffffffffffffffffffffffffffffffffffff021916908373ffffffffffffffffffffffffffffffffffffffff16021790555081600160006101000a81548173ffffffffffffffffffffffffffffffffffffffff021916908373ffffffffffffffffffffffffffffffffffffffff1602179055508060029080519060200190620000d0929190620000d9565b50505062000188565b828054600181600116156101000203166002900490600052602060002090601f016020900481019282601f106200011c57805160ff19168380011785556200014d565b828001600101855582156200014d579182015b828111156200014c5782518255916020019190600101906200012f565b5b5090506200015c919062000160565b5090565b6200018591905b808211156200018157600081600090555060010162000167565b5090565b90565b6113ce80620001986000396000f3006060604052600436106100ba576000357c0100000000000000000000000000000000000000000000000000000000900463ffffffff16806328beb84d146100bf5780633d78640b146100f65780635c437a281461026d5780637284e416146102a4578063770dbe16146103325780638da5cb5b146104a95780639153feef146104fe578063d4cba21c1461054d578063e7f604ae14610576578063efedc66914610640578063f2fde38b14610671578063ffb987f6146106aa575b600080fd5b34156100ca57600080fd5b6100e0600480803590602001909190505061073b565b6040518082815260200191505060405180910390f35b341561010157600080fd5b610117600480803590602001909190505061075e565b604051808881526020018760000b60000b815260200180602001806020018660ff1660ff1681526020018560000b60000b81526020018481526020018381038352888181546001816001161561010002031660029004815260200191508054600181600116156101000203166002900480156101d45780601f106101a9576101008083540402835291602001916101d4565b820191906000526020600020905b8154815290600101906020018083116101b757829003601f168201915b50508381038252878181546001816001161561010002031660029004815260200191508054600181600116156101000203166002900480156102575780601f1061022c57610100808354040283529160200191610257565b820191906000526020600020905b81548152906001019060200180831161023a57829003601f168201915b5050995050505050505050505060405180910390f35b341561027857600080fd5b61028e60048080359060200190919050506107d4565b6040518082815260200191505060405180910390f35b34156102af57600080fd5b6102b7610852565b6040518080602001828103825283818151815260200191508051906020019080838360005b838110156102f75780820151818401526020810190506102dc565b50505050905090810190601f1680156103245780820380516001836020036101000a031916815260200191505b509250505060405180910390f35b341561033d57600080fd5b61035360048080359060200190919050506108f0565b604051808881526020018760000b60000b815260200180602001806020018660ff1660ff1681526020018560000b60000b81526020018481526020018381038352888181546001816001161561010002031660029004815260200191508054600181600116156101000203166002900480156104105780601f106103e557610100808354040283529160200191610410565b820191906000526020600020905b8154815290600101906020018083116103f357829003601f168201915b50508381038252878181546001816001161561010002031660029004815260200191508054600181600116156101000203166002900480156104935780601f1061046857610100808354040283529160200191610493565b820191906000526020600020905b81548152906001019060200180831161047657829003601f168201915b5050995050505050505050505060405180910390f35b34156104b457600080fd5b6104bc610957565b604051808273ffffffffffffffffffffffffffffffffffffffff1673ffffffffffffffffffffffffffffffffffffffff16815260200191505060405180910390f35b610533600480803573ffffffffffffffffffffffffffffffffffffffff1690602001909190803590602001909190505061097c565b604051808215151515815260200191505060405180910390f35b341561055857600080fd5b610560610b2f565b6040518082815260200191505060405180910390f35b341561058157600080fd5b61063e600480803590602001909190803560000b90602001909190803590602001908201803590602001908080601f0160208091040260200160405190810160405280939291908181526020018383808284378201915050505050509190803590602001908201803590602001908080601f0160208091040260200160405190810160405280939291908181526020018383808284378201915050505050509190803560ff16906020019091908035906020019091905050610b97565b005b341561064b57600080fd5b610653610d8a565b604051808261ffff1661ffff16815260200191505060405180910390f35b341561067c57600080fd5b6106a8600480803573ffffffffffffffffffffffffffffffffffffffff16906020019091905050610d9e565b005b34156106b557600080fd5b610739600480803573ffffffffffffffffffffffffffffffffffffffff1690602001909190803590602001909190803560000b90602001909190803590602001908201803590602001908080601f01602080910402602001604051908101604052809392919081815260200183838082843782019150505050505091905050610ef3565b005b600060036000838152602001908152602001600020600501805490509050919050565b60048181548110151561076d57fe5b90600052602060002090600a02016000915090508060000154908060010160009054906101000a900460000b90806002019080600301908060040160009054906101000a900460ff16908060040160019054906101000a900460000b908060070154905087565b60008060009054906101000a900473ffffffffffffffffffffffffffffffffffffffff1673ffffffffffffffffffffffffffffffffffffffff163373ffffffffffffffffffffffffffffffffffffffff1614151561083157600080fd5b60036000838152602001908152602001600020600601805490509050919050565b60028054600181600116156101000203166002900480601f0160208091040260200160405190810160405280929190818152602001828054600181600116156101000203166002900480156108e85780601f106108bd576101008083540402835291602001916108e8565b820191906000526020600020905b8154815290600101906020018083116108cb57829003601f168201915b505050505081565b60036020528060005260406000206000915090508060000154908060010160009054906101000a900460000b90806002019080600301908060040160009054906101000a900460ff16908060040160019054906101000a900460000b908060070154905087565b6000809054906101000a900473ffffffffffffffffffffffffffffffffffffffff1681565b6000806003600084815260200190815260200160002060040160009054906101000a900460ff1660ff161115156109b257600080fd5b6003600083815260200190815260200160002060070154341415610b24576000809054906101000a900473ffffffffffffffffffffffffffffffffffffffff1673ffffffffffffffffffffffffffffffffffffffff166108fc349081150290604051600060405180830381858888f193505050501515610a3157600080fd5b600360008381526020019081526020016000206006018054806001018281610a599190611070565b9160005260206000209001600085909190916101000a81548173ffffffffffffffffffffffffffffffffffffffff021916908373ffffffffffffffffffffffffffffffffffffffff160217905550507f2fb3766d28bb995b418fb83d2769716db37d0604536f4eacebaef200f2ea67e2838334604051808473ffffffffffffffffffffffffffffffffffffffff1673ffffffffffffffffffffffffffffffffffffffff168152602001838152602001828152602001935050505060405180910390a160019050610b29565b600090505b92915050565b60008060009054906101000a900473ffffffffffffffffffffffffffffffffffffffff1673ffffffffffffffffffffffffffffffffffffffff163373ffffffffffffffffffffffffffffffffffffffff16141515610b8c57600080fd5b600480549050905090565b6000809054906101000a900473ffffffffffffffffffffffffffffffffffffffff1673ffffffffffffffffffffffffffffffffffffffff163373ffffffffffffffffffffffffffffffffffffffff16141515610bf257600080fd5b610120604051908101604052808781526020018660000b81526020018581526020018481526020018360ff1681526020016000800b81526020016000604051805910610c3b5750595b908082528060200260200182016040525081526020016000604051805910610c605750595b9080825280602002602001820160405250815260200182815250600360008881526020019081526020016000206000820151816000015560208201518160010160006101000a81548160ff021916908360000b60ff1602179055506040820151816002019080519060200190610cd792919061109c565b506060820151816003019080519060200190610cf492919061109c565b5060808201518160040160006101000a81548160ff021916908360ff16021790555060a08201518160040160016101000a81548160ff021916908360000b60ff16021790555060c0820151816005019080519060200190610d5692919061111c565b5060e0820151816006019080519060200190610d739291906111c6565b506101008201518160070155905050505050505050565b600160149054906101000a900461ffff1681565b6000809054906101000a900473ffffffffffffffffffffffffffffffffffffffff1673ffffffffffffffffffffffffffffffffffffffff163373ffffffffffffffffffffffffffffffffffffffff16141515610df957600080fd5b600073ffffffffffffffffffffffffffffffffffffffff168173ffffffffffffffffffffffffffffffffffffffff1614151515610e3557600080fd5b8073ffffffffffffffffffffffffffffffffffffffff166000809054906101000a900473ffffffffffffffffffffffffffffffffffffffff1673ffffffffffffffffffffffffffffffffffffffff167f8be0079c531659141344cd1fd0a4f28419497f9722a3daafe3b4186f6b6457e060405160405180910390a3806000806101000a81548173ffffffffffffffffffffffffffffffffffffffff021916908373ffffffffffffffffffffffffffffffffffffffff16021790555050565b806003600085815260200190815260200160002060090160008460000b81526020019081526020016000209080519060200190610f31929190611250565b50600360008481526020019081526020016000206005018054806001018281610f5a91906112d0565b916000526020600020906020918282040191900684909190916101000a81548160ff021916908360000b60ff1602179055505060016003600085815260200190815260200160002060080160008673ffffffffffffffffffffffffffffffffffffffff1673ffffffffffffffffffffffffffffffffffffffff16815260200190815260200160002060006101000a81548160ff0219169083151502179055507fa27f02f33d626d2db308ad8b6047b78fd7c442877f0140fd81d1bb7b8af622688483604051808373ffffffffffffffffffffffffffffffffffffffff1673ffffffffffffffffffffffffffffffffffffffff1681526020018260000b60000b81526020019250505060405180910390a150505050565b81548183558181151161109757818360005260206000209182019101611096919061130a565b5b505050565b828054600181600116156101000203166002900490600052602060002090601f016020900481019282601f106110dd57805160ff191683800117855561110b565b8280016001018555821561110b579182015b8281111561110a5782518255916020019190600101906110ef565b5b509050611118919061130a565b5090565b82805482825590600052602060002090601f016020900481019282156111b55791602002820160005b8382111561118657835183826101000a81548160ff021916908360000b60ff1602179055509260200192600101602081600001049283019260010302611145565b80156111b35782816101000a81549060ff0219169055600101602081600001049283019260010302611186565b505b5090506111c2919061132f565b5090565b82805482825590600052602060002090810192821561123f579160200282015b8281111561123e5782518260006101000a81548173ffffffffffffffffffffffffffffffffffffffff021916908373ffffffffffffffffffffffffffffffffffffffff160217905550916020019190600101906111e6565b5b50905061124c919061135f565b5090565b828054600181600116156101000203166002900490600052602060002090601f016020900481019282601f1061129157805160ff19168380011785556112bf565b828001600101855582156112bf579182015b828111156112be5782518255916020019190600101906112a3565b5b5090506112cc919061130a565b5090565b81548183558181151161130557601f016020900481601f01602090048360005260206000209182019101611304919061130a565b5b505050565b61132c91905b80821115611328576000816000905550600101611310565b5090565b90565b61135c91905b8082111561135857600081816101000a81549060ff021916905550600101611335565b5090565b90565b61139f91905b8082111561139b57600081816101000a81549073ffffffffffffffffffffffffffffffffffffffff021916905550600101611365565b5090565b905600a165627a7a72305820bc6943a06599b0c2962e9c9b73d145bd115a2acbf4dd1c76d9159a13f1e2563f0029",
  "source": "pragma solidity ^0.4.16;\n\nimport \"../../zeppelin/ownership/Ownable.sol\";\n\ncontract Teacher is Ownable {\n    address addressTeacherPerson;\n    uint16 public score;\n    string public description;\n    \n    mapping(int => Course) public courses;\n    Course[] public codeCourses;\n\n    event LogCourseCreated(int codeCourse);\n    event LogStudentRegistered(address addressStudent, int codeCourse, uint256 value);\n\n    struct Course {\n        int code;\n        int8 qtdPersonLimit;\n        string name;\n        string description;\n        uint8 qtdHours;\n        int8 score;        \n        int8[] votes;\n        address[] addressStudent;\n        uint256 price;\n        mapping(address => bool) mapStudent;\n        mapping(int => string) comments;\n    }\n\n    function Teacher(address _addressTeacherPerson, string _description) public {\n        addressTeacherPerson = _addressTeacherPerson;\n        description = _description;\n    }\n\n    function createCourse(int _codeCourse, int8 _qtdPersonLimit,\n        string _name, string _description,\n        uint8 _qtdHours, uint256 _price) public onlyOwner\n    {\n\n       courses[_codeCourse] = Course ({\n            code: _codeCourse,\n            qtdPersonLimit: _qtdPersonLimit,\n            name: _name,\n            description: _description,\n            qtdHours: _qtdHours,\n            score: 0,\n            votes: new int8[](0),\n            addressStudent: new address[](0),\n            price: _price\n        });\n\n    }\n\n    function subscribeCourse(address _addressStudent, int _codeCourse) public payable returns (bool) {\n        require(courses[_codeCourse].qtdHours > 0);\n        if (msg.value == courses[_codeCourse].price) {\n            owner.transfer(msg.value);\n            courses[_codeCourse].addressStudent.push(_addressStudent);\n            LogStudentRegistered(_addressStudent, _codeCourse, msg.value);\n            return true;\n        } else {\n            return false;\n        }\n    }\n\n    function getTotalStudentByCourse(int _codeCourse) public view onlyOwner returns(uint256) {\n        return courses[_codeCourse].addressStudent.length;\n    }\n\n    function getTotalCourses() public view onlyOwner returns(uint256) {\n        return codeCourses.length;\n    }\n\n    function getNumVotos(int _codigoCurso) public view returns(uint256) {\n        return courses[_codigoCurso].votes.length;\n    }\n\n    event LogEventReceiveReputation(address addressStudent, int8 _reputation);\n\n\n    function sendReputation(address _addressStudent, int _codeCourse, int8 _reputation, string comments)\n        public\n        {\n        courses[_codeCourse].comments[_reputation] = comments;\n        courses[_codeCourse].votes.push(_reputation);\n        courses[_codeCourse].mapStudent[_addressStudent] = true;\n\n        LogEventReceiveReputation(_addressStudent, _reputation);\n\n        // if (receberCertificado) {\n        //     Aluno aluno = Aluno(enderecoAluno);\n        //     aluno.gerarCertificado(this, listaCursos[codigoCurso].codigoCurso, listaCursos[codigoCurso].nomeCurso, listaCursos[codigoCurso].qtdHoras);\n        // }\n    }\n\n}",
  "sourcePath": "/Users/hgleite/Documents/henrique/GoBlockchain/GBC_contratos/GBC/contracts/goblockchain/teacher/Teacher.sol",
  "compiler": {
    "name": "solc",
    "version": "0.4.18+commit.9cf6e910.Emscripten.clang"
  },
  "schemaVersion": "1.0.1",
  "updatedAt": "2017-12-13T22:05:27.694Z"
}